:020000040800F2
:10000000980800208901000829410008713800087B
:1000100025410008150300083948000800000000C9
:100020000000000000000000000000001542000871
:100030000D070008000000002D41000801470008DE
:10004000A3010008A3010008A3010008A301000800
:10005000A3010008A3010008A3010008A3010008F0
:10006000A3010008A3010008A3010008A3010008E0
:10007000A3010008A3010008A3010008A3010008D0
:10008000A3010008A3010008A3010008A3010008C0
:10009000A3010008A3010008A3010008A3010008B0
:1000A000A3010008A3010008A3010008A3010008A0
:1000B000A301000809470008A3010008A3010008E4
:1000C000A3010008A3010008A3010008A301000880
:1000D000A3010008A3010008214800082D480008DA
:1000E000A3010008A3010008A301000800F002F822
:1000F00000F03AF80AA090E8000C82448344AAF188
:100100000107DA4501D100F02FF8AFF2090EBAE885
:100110000F0013F0010F18BFFB1A43F0010318473B
:10012000BC4A0000DC4A0000103A24BF78C878C1FD
:10013000FAD8520724BF30C830C144BF04680C60ED
:10014000704700000023002400250026103A28BF35
:1001500078C1FBD8520728BF30C148BF0B60704739
:100160001FB51FBD10B510BD00F09EF81146FFF77A
:10017000F7FF04F063FB00F0BCF803B4FFF7F2FFF5
:1001800003BC00F0BFF80000094880470948004759
:10019000FEE7FEE7FEE7FEE7FEE7FEE7FEE7FEE737
:1001A000FEE7FEE704480549054A064B7047000094
:1001B00005470008ED00000898020020980800207C
:1001C00098040020980400204FF0000200B5134668
:1001D00094469646203922BFA0E80C50A0E80C5067
:1001E000B1F12001BFF4F7AF090728BFA0E80C5018
:1001F00048BF0CC05DF804EB890028BF40F8042B11
:1002000008BF704748BF20F8022B11F0804F18BF7D
:1002100000F8012B704700004FF0013C50F8042B10
:1002200051F8043B9A4221D1A2EB0C03934313EA09
:10023000CC1317D150F8042B51F8043B9A4215D136
:10024000A2EB0C03934313EACC130BD150F8042B0D
:1002500051F8043B9A4209D1A2EB0C03934313EAF1
:10026000CC13DBD04FF00000704700BFD01A01BAAA
:10027000B1FA81F101F0180122FA01F0CB40DBB2B2
:10028000C0B2C01AC1F120012CFA01F3D11A914376
:1002900011EAC311E6D170477047704770470000FC
:1002A00000487047380000207546FFF7F9FFAE465A
:1002B00005006946534620F00700854618B020B572
:1002C000FFF770FFBDE820404FF000064FF0000739
:1002D0004FF000084FF0000BAC46ACE8C009ACE8AA
:1002E000C009ACE8C009ACE8C00921F007018D469F
:1002F000704710B50446AFF300802046BDE81040BB
:10030000FFF73BBF01491820ABBEFEE72600020005
:1003100070470000FEE700002DE9F04740F2980723
:10032000C2F200077978B878022969D8002867D125
:1003300040F2000040F60044C2F20000C4F20104A2
:100340004FF001084FF0000907F10A0A00F1090611
:100350002046102100F08EFF012801D1312519E03F
:100360002046082100F086FF012801D1322511E046
:1003700020464FF4007100F07DFF012808D000BF37
:10038000787803281FD07978B878022936D937E0F1
:10039000332500BF7878013000F01AFB787801220D
:1003A000411C3844797085722046012100F068FFB5
:1003B000642000F03DFE20460121002200F060FF95
:1003C00078780328DFD150463146FFF725FF48B142
:1003D00087F8019000F07EFC7978B87802290DD971
:1003E0000EE000BFA7F8069087F8028004F04EF8F0
:1003F00000F03EFA7978B878022901D80028A7D011
:10040000012840F07B81F888B0F5487FC0F0768104
:1004100040F60044C4F2010404F580604FF400414A
:1004200000F028FF012818BFBDE8F08740F2000067
:10043000C2F2000000F10D0540F24820C2F20000B7
:10044000294618224FF47A7303F0D4F8204601218C
:10045000012200F015FF642000F0EAFD2046012192
:100460000022002600F00CFFF878432800F03C81C1
:100470004F2800F02A814FF47A7000F0D9FD40F245
:100480004820C2F20000294618224FF47A7303F084
:10049000B1F820460121012200F0F2FE642000F0B4
:1004A000C7FD20460121002200F0EAFEF87843282B
:1004B00000F01A814F2800F008814FF47A7000F0A4
:1004C000B7FD40F24820C2F20000294618224FF43E
:1004D0007A7303F08FF820460121012200F0D0FE4C
:1004E000642000F0A5FD20460121002200F0C8FE96
:1004F000F878432800F0F8804F2800F0E6804FF4A9
:100500007A7000F095FD40F24820C2F200002946C2
:1005100018224FF47A7303F06DF82046012101226E
:1005200000F0AEFE642000F083FD20460121002291
:1005300000F0A6FEF878432800F0D6804F2800F09F
:10054000C4804FF47A7000F073FD40F24820C2F28C
:100550000000294618224FF47A7303F04BF8204626
:100560000121012200F08CFE642000F061FD204694
:100570000121002200F084FEF878432800F0B480C6
:100580004F2800F0A2804FF47A7000F051FD40F245
:100590004820C2F20000294618224FF47A7303F073
:1005A00029F820460121012200F06AFE642000F0B3
:1005B0003FFD20460121002200F062FEF87843282A
:1005C00000F092804F2800F080804FF47A7000F0A5
:1005D0002FFD40F24820C2F20000294618224FF4B5
:1005E0007A7303F007F820460121012200F048FE4B
:1005F000642000F01DFD20460121002200F040FE95
:10060000F878432870D04F285FD04FF47A7000F00C
:100610000FFD40F24820C2F20000294618224FF494
:100620007A7302F0E7FF20460121012200F028FE44
:10063000642000F0FDFC20460121002200F020FE95
:10064000F878432850D04F283FD04FF47A7000F00C
:10065000EFFC40F24820C2F20000294618224FF475
:100660007A7302F0C7FF20460121012200F008FE44
:10067000642000F0DDFC20460121002200F000FE95
:10068000F878432830D04F281FD04FF47A7000F00C
:10069000CFFC40F24820C2F20000294618224FF455
:1006A0007A7302F0A7FF20460121012200F0E8FD45
:1006B000642000F0BDFC20460121002200F0E0FD96
:1006C000F878432810D04F281AD100F0D1F8002034
:1006D000A7F8010007F12C00002102F057FB2020B1
:1006E000F870BDE8F08700BF03F096FD00F010F849
:1006F0007E7000F0EFFA4FF400507880BDE8F0878C
:100700004FF47A70BDE8F04700F092BC70470000EB
:100710002DE9F04184B040F600440B20C4F20104FE
:100720008DF80700032620464FF4805100228DF8F3
:10073000066000F0A5FD40F26015C2F200050DF163
:1007400007012846012264234FF0010801F012FD41
:100750000DF1060128460122642301F00BFD20461D
:100760004FF48051012200F08BFD40F20007C2F2ED
:100770000007387904218DF809108DF8080020460B
:100780004FF48051002200F07BFD0DF10901284655
:100790000122642301F0EEFC02A928460122642311
:1007A00001F0E8FC20464FF48051012200F068FD82
:1007B0007E208DF80A0020464FF4805100228DF8EB
:1007C0000B6000F05DFD0DF10B0128460122642352
:1007D00001F0D0FC0DF10A0128460122642301F04A
:1007E000C9FC20464FF48051012200F049FDB87940
:1007F00002218DF80D108DF80C0020464FF4805129
:10080000002200F03DFD0DF10D0128460122642378
:1008100001F0B0FC03A928460122642301F0AAFCE0
:1008200020464FF48051012200F02AFD78794FF4E0
:1008300080518DF80E00204600228DF80F8000F0C8
:100840001FFD0DF10F0128460122642301F092FCE7
:100850000DF10E0128460122642301F08BFC204695
:100860004FF48051012200F00BFD04B0BDE8F0818F
:100870002DE9F04184B040F600440B20C4F201049D
:100880008DF807004FF0030820464FF480510022F6
:100890008DF8068000F0F4FC40F26015C2F200050D
:1008A0000DF10701284601226423012601F062FCB4
:1008B0000DF1060128460122642301F05BFC20466D
:1008C0004FF48051012200F0DBFC40F20007C2F23D
:1008D0000007F8784FF480518DF808002046002278
:1008E0008DF8096000F0CCFC0DF1090128460122C9
:1008F000642301F03FFC02A928460122642301F091
:1009000039FC20464FF48051012200F0B9FC787880
:1009100002218DF80B108DF80A0020464FF480510B
:10092000002200F0ADFC0DF10B01284601226423EA
:1009300001F020FC0DF10A0128460122642301F098
:1009400019FC20464FF48051012200F099FCB87840
:100950004FF480518DF80C00204600228DF80D8058
:1009600000F08EFC0DF10D0128460122642301F0F8
:1009700001FC03A928460122642301F0FBFB204669
:100980004FF48051012200F07BFC387804218DF86F
:100990000F108DF80E0020464FF48051002200F019
:1009A0006FFC0DF10F0128460122642301F0E2FBE8
:1009B0000DF10E0128460122642301F0DBFB2046E5
:1009C0004FF48051012200F05BFC04B0BDE8F081DF
:1009D0002DE9F04381B040F600440546C4F201041D
:1009E0000B208DF80300072720464FF4805100228A
:1009F0008DF8027000F044FC40F26016C2F200066E
:100A00000DF103013046012264234FF0010801F08B
:100A1000B1FB0DF1020130460122642301F0AAFB73
:100A200020464FF48051012200F02AFC40F20009D8
:100A3000C2F2000999F8020008218DF803108DF820
:100A4000020020464FF48051002200F019FC0DF105
:100A5000030130460122642301F08CFB0DF10201F9
:100A600030460122642301F085FB20464FF480517B
:100A7000012200F005FC99F808004FF480518DF830
:100A80000200204600228DF8037000F0F9FB0DF102
:100A9000030130460122642301F06CFB0DF10201D9
:100AA00030460122642301F065FB20464FF480515B
:100AB000012200F0E5FB99F8050006218DF80310EE
:100AC0008DF8020020464FF48051002200F0D8FB40
:100AD0000DF1030130460122642301F04BFB0DF1BF
:100AE000020130460122642301F044FB20464FF40A
:100AF0008051012200F0C4FB99F8050005218DF812
:100B000003108DF8020020464FF48051002200F0BF
:100B1000B7FB0DF1030130460122642301F02AFBEB
:100B20000DF1020130460122642301F023FB20462F
:100B30004FF48051012200F0A3FB032D16D0022DAB
:100B40007ED0012D78D199F8070003218DF803108C
:100B50008DF8020020464FF48051002200F090FBF7
:100B600040F26015C2F200059CE000BF99F8070052
:100B700003218DF803108DF8020020464FF48051B8
:100B8000002200F07DFB40F26015C2F200050DF17D
:100B9000030128460122642301F0ECFA0DF1020161
:100BA00028460122642301F0E5FA20464FF48051E3
:100BB000012200F065FB99F8070002218DF803106F
:100BC0008DF8020020464FF48051002200F058FBBF
:100BD0000DF1030128460122642301F0CBFA0DF147
:100BE000020128460122642301F0C4FA20464FF492
:100BF0008051012200F044FB99F807004FF4805126
:100C00008DF80200204600228DF8038000F038FBAA
:100C10000DF1030128460122642301F0ABFA0DF126
:100C2000020128460122642301F0A4FA20464FF471
:100C30008051012200F024FB01B0BDE8F08300BF29
:100C400099F8070003218DF803108DF80200204663
:100C50004FF48051002200F013FB40F26015C2F205
:100C600000050DF1030128460122642301F082FAF8
:100C70000DF1020128460122642301F07BFA20468F
:100C80004FF48051012200F0FBFA99F8070002218D
:100C90008DF803108DF8020020464FF48051002299
:100CA00000F0EEFA0DF1030128460122642301F061
:100CB00061FA0DF1020128460122642301F05AFA7B
:100CC00020464FF48051012200F0DAFA01B0BDE86D
:100CD000F08300002DE9F04182B040F600440B2083
:100CE000C4F201048DF80700072620464FF4805116
:100CF00000228DF8066000F0C3FA40F26015C2F2DF
:100D000000050DF107012846012264234FF0010878
:100D100001F030FA0DF1060128460122642301F0AA
:100D200029FA20464FF48051012200F0A9FA40F23E
:100D30000007C2F20007B87808218DF807108DF877
:100D4000060020464FF48051002200F099FA0DF180
:100D5000070128460122642301F00CFA0DF1060177
:100D600028460122642301F005FA20464FF4805101
:100D7000012200F085FA387A4FF480518DF8060090
:100D8000204600228DF8076000F07AFA0DF1070185
:100D900028460122642301F0EDF90DF106012846F1
:100DA0000122642301F0E6F920464FF4805101222C
:100DB00000F066FA787906218DF807108DF80600A4
:100DC00020464FF48051002200F05AFA0DF107013D
:100DD00028460122642301F0CDF90DF106012846D1
:100DE0000122642301F0C6F920464FF4805101220C
:100DF00000F046FA787905218DF807108DF8060085
:100E000020464FF48051002200F03AFA0DF107011C
:100E100028460122642301F0ADF90DF106012846B0
:100E20000122642301F0A6F920464FF480510122EB
:100E300000F026FA04208DF80700802720464FF4A2
:100E4000805100228DF8067000F01AFA0DF10701AA
:100E500028460122642301F08DF90DF10601284690
:100E60000122642301F086F920464FF480510122CB
:100E700000F006FA03208DF8070020464FF4805159
:100E800000228DF8067000F0FBF90DF107012846ED
:100E90000122642301F06EF90DF1060128460122BA
:100EA000642301F067F920464FF48051012200F0DD
:100EB000E7F902208DF8070020464FF48051002208
:100EC0008DF8067000F0DCF90DF1070128460122CB
:100ED000642301F04FF90DF1060128460122642335
:100EE00001F048F920464FF48051012200F0C8F982
:100EF00020464FF4805100228DF807808DF806704F
:100F000000F0BEF90DF1070128460122642301F02B
:100F100031F90DF1060128460122642301F02AF976
:100F200020464FF48051012200F0AAF902B0BDE83A
:100F3000F0810000014690F82100022816D10868CF
:100F4000D1E90FC3026822F00E020260026822F0AB
:100F500001020260012000FA03F2CCF8042081F8BB
:100F600021000020002281F820207047042088639F
:100F70000120002281F820207047000080B590F801
:100F80002110022924D10268116821F00E0111609C
:100F90002F211368C4F202018A4240F20401C4F214
:100FA000020123F00103136016DD3023C4F20203B3
:100FB0009A421DD04423C4F202039A421CD0582303
:100FC000C4F202039A421DD14FF4803322E000BFE5
:100FD00004218163012080BD0823C4F202039A42E8
:100FE0000ED01C23C4F202039A420BD1102311E04D
:100FF0004FF480730EE000BF4FF480530AE000BF4F
:10100000012307E001F1680C4FF08073624508BFCF
:101010004FF480130B60012180F82110426B0021F6
:1010200080F820100AB190470021084680BD0000DA
:10103000B0B5044600F02AF9054640F22800C2F295
:1010400000000078611C18BF044400BF00F01EF9C6
:10105000401BA042FAD3B0BD2DE9F04F82B00E681C
:10106000002E00F0038141F20042C4F20102042389
:1010700040F2004E904208BF03234FF6FF7CC4F2BB
:10108000010E009300240123C1F2100C4FF0000A5E
:101090004FF0000949E000BF012704F00C030F22C4
:1010A0009A402BEA020207FA03F34FEA9A051A4321
:1010B00046F82520D1F804B040F20C455FEACB2277
:1010C000DEF8082054BF22EA080242EA0802C4F20D
:1010D0000105CEF808202A685FEA8B2354BF22EA74
:1010E000080242EA08022A605FEA8B33DEF8042035
:1010F00054BF22EA080242EA08025FEACB33CEF884
:101100000420DEF800204FF0010354BF22EA080259
:1011100042EA0802CEF800200E680AF1010A36FA07
:101120000AF204F1040400F0A18003FA0AF816EAB6
:10113000080FF1D04E68664512DC122E56D8DFE853
:1011400006F0350B45495555555555555555555589
:101150005555554D510000BFD1F80C9046E000BFE9
:101160004FF6FF72C1F2210296420FDC0022C1F25B
:10117000110296421AD00022C1F21202964215D0F4
:101180000022C1F22102964210D02FE00022C1F2CB
:10119000220296420AD00022C1F23102964205D0C4
:1011A0000022C1F23202964220D100BF8A684AB1C1
:1011B000012A14BFC0F81480C0F810804FF008094D
:1011C00014E000BF4FF0040910E000BFCA6802F14C
:1011D00008090BE04FF0000908E000BFCA6802F1FF
:1011E000040903E0CA6802F10C0900BF2246064662
:1011F000BAF1080F24BF203A043637680F2595400E
:1012000027EA050509FA02F22A433260CA79D206B2
:101210007FF582AF41F21803C4F202031A68AEF5FB
:101220007E7642F001021A601A6802F00102019211
:10123000019A2AF0030256F802B040F60002C4F206
:101240000102904210D040F60042C4F201029042E6
:101250003FF422AF41F20002C4F20102009F90422B
:1012600008BF022719E700BF002716E702B0BDE854
:10127000F08F00008068084018BF01207047000010
:10128000002A08BF090401617047000040F2902065
:10129000C2F200000068704770B5B8B3044690F819
:1012A0003D0028B9002084F83C00204600F002FBF5
:1012B000242084F83D002068016821F001010160CC
:1012C000016841F400410160016821F400410160BE
:1012D00000F0BAFC48F28041C0F21E0140F6001353
:1012E000D4F804E088424FF00001C0F23D0348F218
:1012F000A16C4FF0000238BF01219842C0F2010CEE
:1013000038BF0122E64538BF0A460AB1012070BD48
:101310004DF68361C4F21B31A0FB01122168950CCC
:101320004B684FF4967623F03F0343EA92437543AC
:1013300044F6D3564B60C1F262060B6AA5FB065613
:10134000B50923F03F03E64538BF950C6A1C1A43E4
:101350000A62CA6948F2A0664CF6FF73C0F2010641
:10136000B64522EA03020BD801384FEA4E03B0FB20
:10137000F3F001306FF31F30042898BF04201EE003
:10138000A368013863B119230EFB03F3B0FBF3F03C
:1013900001306FF31F3078B100F5804008E000BFE6
:1013A0000EEB4E03B0FBF3F001306FF31F3028B1AA
:1013B00000F5004003E000BF012000E001201043E1
:1013C000C8610868D4E9072320F0C000104318431F
:1013D0000860886848F2FF3204F10C0690434CCE56
:1013E00018431043A5698860C86820F0FF003043A7
:1013F0002843C860086840F00100086000202021F0
:10140000206484F83D10206384F83E0070BD000025
:101410002DE9F04F85B004460020994616460F4648
:101420000490FFF733FF94F83D10202927D105469B
:10143000206800BF816989071CD5FFF727FF411B82
:1014400020681A29F6D381698907F3D50020202165
:10145000206384F83D1084F83E00206C04F13C0ABF
:1014600040F020002064022000218AF8001005B01E
:10147000BDE8F08FA2461AF83C1F012904D10220D2
:1014800005B0BDE8F08F00BF01228AF80020036894
:10149000DDE90F180E9ADB0703D1036843F001035F
:1014A0000360036823F400630360222084F83D0096
:1014B000402084F83E000020206462626185608DD7
:1014C000394620850020CFF6FF70E0622046324684
:1014D0004B46CDF80080019502F0CCF920B10120F7
:1014E00005B0BDE8F08F00BF208D022810D0012884
:1014F00024D0002838D1002003902068416903914E
:10150000816903910399016841F40071016037E03A
:101510002068016841F400610160EFF3108072B649
:101520000020039020684169039181690391039928
:10153000016821F48061016062B621E020680168E1
:1015400021F480610160EFF3108072B600200390F7
:10155000206841690391816903910399016841F40D
:101560000071016062B60BE02068016841F480619F
:101570000160002103914169039180690390039800
:10158000208D002800F0CA80042740F230094BF279
:10159000895BC0F20107C2F20009C1F2F84B2326B1
:1015A00017E000BF204641462A4602F00DFC002805
:1015B00095D12068616A00690870606A218D0130E8
:1015C0006062481E2085618D01396185010400F04B
:1015D000A58080B2032865D8022800F07F8001280A
:1015E000E0D02046394600224346009502F092FAA8
:1015F00000287FF474AF2068016821F480610160E5
:10160000EFF3108072B62068616A00690870606A42
:10161000218D0130013960622185618D013961853B
:10162000D9F80010C908A1FB0B12110A71430491EB
:101630000499013904910499002900F07B80216804
:101640004A6952071DD4049901390491049900296B
:1016500070D021684A69520713D404990139049162
:101660000499002966D021684A69520709D404996F
:1016700001390491049900295CD021684A69520714
:10168000D6D50A6842F400720A6009690170606A7E
:10169000218D01306062481E2085608D0138608593
:1016A00062B686E7204641462A4602F08DFB0028B6
:1016B0007FF415AF2068616A00690870606A22686B
:1016C000411C208D616201382085638D013B63855B
:1016D00053695B077FF57AAF10696DE7204639469D
:1016E00000224346009502F015FA00287FF4F7AE79
:1016F000EFF3108072B62068616A026842F40072EB
:10170000026000690870606A218D01306062481EC5
:101710002085608D0138608562B64AE7202084F814
:101720003D00002084F83E0000218AF8001005B03A
:10173000BDE8F08F00202021206384F83D1084F85C
:101740003E00206C40F02000206462B601200021A1
:101750008AF8001005B0BDE8F08F00002DE9F043D5
:1017600083B0994616460F460446FFF78FFD94F85E
:101770003D10202920D10546206800BF81698907D6
:1017800016D5FFF783FD411B20681A29F6D381691E
:101790008907F3D500202021206384F83D1084F8C8
:1017A0003E00216C41F02001216484F83C0003E0FC
:1017B00094F83C10012903D1022003B0BDE8F08366
:1017C000012284F83C200368DDE90B180A9ADB0744
:1017D00003D1036843F001030360036823F400634B
:1017E0000360212084F83D00402084F83E00002062
:1017F000206462626185608D394620850020CFF6C5
:10180000FF70E062204632464B46CDF800800195DD
:1018100002F0BCF820B1012003B0BDE8F08300BFA6
:10182000208D98B9204641462A4602F013F988B324
:10183000206C0428EFD12068016841F40071016038
:10184000012003B0BDE8F0830004EBD02046414600
:101850002A4602F001FB0028EAD1616A22680846A4
:1018600010F8013B1361238D6062581E2085678D3F
:10187000013F678557697F07E6D50704E4D04878BC
:101880001061881C6062981E2085618D0139618518
:10189000DAE700BF2068016841F400710160202090
:1018A00084F83D00002084F83E0084F83C0003B03A
:1018B000BDE8F08310B586B045F200410068C4F27F
:1018C000000100228842049202D006B010BD00BF81
:1018D00041F21804C4F20204206840F008002060BD
:1018E000206800F0080001900198C02002901220AA
:1018F00003900320059001F5384002A9FFF7ACFBE7
:10190000606840F400106060606800F400100190AE
:10191000019806B010BD000040F2280040F290216E
:10192000C2F20000C2F2000100780A6810440860A8
:101930007047000080B542F20000C4F20200016866
:1019400041F010010160032000F08EF8002000F04B
:1019500005F800F027F8002080BD000070B540F2C7
:101960002806C2F2000640F230013278C2F20001CD
:101970004FF47A730968B3FBF2F20446B1FBF2F15B
:10198000084600F0F5FC0F2C4FF0010508D838B9D7
:101990004FF0FF3021460022002500F039F8746036
:1019A000284670BD82B041F21800C4F202000168FE
:1019B000022241F001010160016801F00101019181
:1019C0000199416841F080514160406800F08050C9
:1019D000009000980420C4F20100016862F31A61CB
:1019E000016002B070470000002848BF7047C1B2D4
:1019F00000F01F00012202FA00F04EF20012CEF2B7
:101A0000000242EAD10121F00301086070470000A2
:101A100010B54EF60C5CCEF2000CDCF80030C3F3CF
:101A2000022E8EF00704042C28BF0424BEF1030309
:101A30004FF0FF3E0EFA04F438BF0023A143994053
:101A40000EFA03F39A43114300F00F0200F16043D2
:101A50000901043A03F564436244002848BF02F1D7
:101A60000C03197010BD00004EF60C51CEF20001AF
:101A70000A684FF6FF031A4060F30A2242F08060C2
:101A800040F0FD70086070472DE9F04381B00028F8
:101A900000F0858042F20008C4F202080446D8F83B
:101AA00000000D4600F0070088420CD2D8F8000074
:101AB00020F007002843C8F80000D8F8000000F024
:101AC0000700A8426BD1206841F204098107C4F2E3
:101AD000020917D5410705D5D9F8001041F4E06196
:101AE000C9F80010010705D5D9F8001041F460517C
:101AF000C9F80010D9F80010A26821F0F0011143D4
:101B0000C9F80010C00741D1D8F8000000F0070064
:101B1000A8420CD9D8F8000020F007002843C8F8E4
:101B20000000D8F8000000F00700A84237D1206874
:101B3000410707D5D9F80010E26821F4E0611143AC
:101B4000C9F80010000708D5D9F80000216920F471
:101B5000605040EAC100C9F80000D9F8002002F046
:101B60000C00082841F20020C0F27A0050D144F65F
:101B7000CC33C2F38341C0F60003595CD2033BD49B
:101B800040F60010C0F23D00484341E06068022882
:101B90000AD001282AD159F8041C890308D401204D
:101BA00001B0BDE8F08300BF59F8041C8901F6D5E7
:101BB000D9F8001021F003010843C9F80000FFF72D
:101BC00065FB064641F28837D9F80000616800F0ED
:101BD0000C00B0EB810F97D0FFF758FB801BB84289
:101BE000F2D9032001B0BDE8F08300BF59F8041C0E
:101BF0008907D4D5DCE700BFD9F8002044F6CA3302
:101C0000C2F34042C0F600039A5C4843B0FBF2F0D6
:101C1000D9F8001044F6B232C1F30311C0F6000245
:101C2000515C40F2300220FA01F140F22C00C2F285
:101C300000000068C2F200021160FFF78FFE002072
:101C400001B0BDE8F083000040F2300041F2040131
:101C5000C2F20000C4F202010068096844F6C23210
:101C6000C1F30221C0F60002515CC8407047000079
:101C700040F2300041F20401C2F20000C4F202015D
:101C80000068096844F6C232C1F3C221C0F60002FE
:101C9000515CC840704700002DE9F04182B0002837
:101CA00068D00446007841F20006C007C4F202067C
:101CB00025D0706800F00C0004281BD0706800F07C
:101CC0000C00082802D17068C00313D46068002893
:101CD00000F06881B0F5A02F00F07C81B0F5803F66
:101CE00000F07C81306820F480303060306820F46F
:101CF000802076E13068800301D56068D0B3207819
:101D0000800718D5706810F00C0F07D0706800F0CD
:101D10000C0008286ED17068C0036BD4306880074F
:101D200002D52069012825D13068616920F0F800CA
:101D300040EAC1003060207800071FD420784007B7
:101D400032D4E56995B1706800F00C00082840F0C5
:101D50008F80012D0ED07068216A00F480328A4293
:101D600008D1616A00F47010884203D1002002B0EB
:101D7000BDE8F081012002B0BDE8F081A069002833
:101D800062D00020C4F242200121C0F88014FFF785
:101D90007DFA0546706A800700F18C80FFF776FABD
:101DA000401B0228F6D92AE1F06910F0805808D1CA
:101DB000F06940F08050F061F06900F080500090D0
:101DC000009847F20007C4F200073868C00529D41C
:101DD000386840F480703860FFF758FA054600BF55
:101DE0003868C0051ED4FFF751FA401B6428F7D9A4
:101DF00005E100BF2069002840F20000C4F2422043
:101E000000F0828001210160FFF740FA054600BF23
:101E1000306880073FF588AFFFF738FA401B02288B
:101E2000F6D9ECE0E068002800F08080052800F09A
:101E30009780012800F09880306A20F0010030621D
:101E4000306A20F0040092E00020C4F24220002119
:101E5000C0F88014FFF71AFA054600BF706A8007C1
:101E60007FF56CAFFFF712FA401B0228F6D9C6E0E7
:101E70000027C4F2422700203866FFF707FA022D38
:101E800005460BD13068800140F1BE80FFF7FEF9B6
:101E9000401B02284FF00300F4D968E73068800146
:101EA0007FF564AFFFF7F2F9401B02284FF0030003
:101EB000F4D95CE740F23000C2F20000006844F65A
:101EC000D351C1F26201A0FB0101480A019000BF99
:101ED00000BF0198411E002801913FF42FAF00BFC1
:101EE0000198411E002801913FF428AF00BF0198DE
:101EF000411E002801913FF421AF00BF0198411E0F
:101F000000280191E4D119E700210160FFF7BEF933
:101F1000054600BF306880077FF50DAFFFF7B6F9C3
:101F2000401B02284FF00300F4D920E7306A20F06C
:101F300001003062306A20F004003062FFF7A6F939
:101F4000054641F2883700BF306A800720D5FFF789
:101F50009DF9401BB8424FF00300F5D907E700BFD9
:101F6000306A40F004003062306A40F001003062B4
:101F7000FFF78CF9054641F2883700BF306A8007C9
:101F800006D4FFF783F9401BB842F7D937E000BF0A
:101F9000B8F1000F7FF4D5AEF06920F08050F06109
:101FA000CFE600BF306820F480303060306820F425
:101FB00080203060FFF76AF9054600BF3068800373
:101FC0007FF59DAEFFF762F9401B64284FF00300D8
:101FD000F4D9CCE6306840F480203060306840F4BA
:101FE00080303060FFF752F9054600BF306880034B
:101FF0003FF585AEFFF74AF9401B6428F6D9032068
:1020000002B0BDE8F08100BF206AB0F5803F05D185
:102010007168A26821F40031114371607168626ACD
:1020200021F4741111430843706001203866FFF7F2
:102030002DF90446306880013FF598AEFFF726F988
:10204000001B02284FF00300F4D990E670B538B1B8
:102050000446406A30B10020206104F1140007E01A
:10206000012070BD6068B0F5827F03D004F11C00D0
:10207000002101600026A66294F8510020B9204694
:1020800084F8506000F038F8022084F8510094E899
:10209000071001F48271036802F4044223F0400344
:1020A0000360236911440CF40062114403F002023E
:1020B0006369114403F00102A369E569114403F463
:1020C0000072114405F03802256A114405F08002BF
:1020D000A56A114305F4005211430160042101EA8D
:1020E00013414160C16921F40061C161012066654D
:1020F00084F85100304670BD70B586B040F600449B
:10210000C4F201040068A4F55441002688420496F4
:1021100002D006B070BD00BF41F21800C4F2020048
:10212000416802AD41F480414160416801F4804161
:1021300001910199016841F0080101600068294698
:1021400000F00800019001984FF420400290022016
:102150000390032005902046FEF77EFF4FF4804059
:10216000CDE90206204629460496FEF775FF06B023
:1021700070BD00002DE9F04182B0044690F8500097
:10218000012803D1022002B0BDE8F08101201D46E4
:1021900016460F4684F85000FFF778F894F851106F
:1021A00001290DD18046002F4FF0010018BF002EED
:1021B0000ED1002184F8501002B0BDE8F08100BFBC
:1021C0000220002184F8501002B0BDE8F08100BF69
:1021D0000320002184F8510061652763A686E68606
:1021E000A163A187E187A0682164B0F5004F206852
:1021F000616407D1016821F040010160016841F488
:10220000804101600168490603D4016841F0400142
:1022100001606168731EE268B1FA81F1B3FA83F379
:1022200049095B09B2F5006F41EA03013CD131B1C4
:1022300037F8021BC1602763E08E0138E086E08E2C
:1022400000286BD0681C0CD11DE000BF216B31F859
:10225000022BC2602163E08E0138E086E08E002808
:102260005CD0206881688907F0D4FFF70FF8A0EBF5
:102270000800A842F2D3032071E000BFFFF706F880
:10228000E08E00284AD0206881688907F6D5216B46
:1022900031F8022BC2602163E08E0138E086E08EC7
:1022A0000028F0D13AE000BF39B139780173206BD2
:1022B00001302063E08E0138E086E08E70B3681C48
:1022C0000BD11BE0216B09780173206B0130206377
:1022D000E08E0138E086E08E00B3206881688907CF
:1022E000F0D4FEF7D3FFA0EB0800A842F3D30320FD
:1022F00035E000BFFEF7CAFFE08E78B12068816844
:102300008907F7D5216B09780173206B01302063B1
:10231000E08E0138E086E08E0028EFD12046802153
:102320002A46434601F004FF28B1606D40F02000CA
:10233000606520206065A06838B9002001902068A1
:10234000C1680191806801900198606D30B10120F1
:10235000002184F8501002B0BDE8F0810020012176
:1023600084F85110002184F8501002B0BDE8F081CB
:10237000411E0020B0EB116F1CBF012070474EF2D0
:102380001002CEF2000251604EF62351CEF200014F
:10239000F0230B70072190601160704770470000B8
:1023A0007047000010B590F83C20012A4FF002025F
:1023B00033D080F83D200268D2F804E0D2F808C09B
:1023C0000C682EF07003234340F2FF74C4F2000443
:1023D000A24253600ADCB2F1804F13D040F20043B6
:1023E000C4F200039A420DD011E000BF42F6004350
:1023F000C4F201039A4205D040F60003C4F2000380
:102400009A4204D149682CF080031943916001215C
:10241000002280F83D1080F83C20104610BD0000DE
:10242000002804BF0120704710B5044690F83D0015
:1024300028B9002084F83C00204600F067F802200C
:1024400084F83D00206840F2FF730268C4F2000384
:1024500042F6004C9842C4F2010C15DCB0F1804FFA
:102460001AD040F20041C4F20001884214D09842D0
:1024700018DCB0F1804F1DD040F20041C4F20001E1
:10248000884217D01AE000BF604505D040F6000131
:10249000C4F200018842EAD1A16822F070020A4326
:1024A0009842E6DD604505D040F60001C4F2000127
:1024B000884203D1216922F440720A43A36922F0C1
:1024C0008001D4F804E0E268194360450160C2620B
:1024D000C0F828E002D16169CCF8301001214161D7
:1024E000002084F8461084F83E1084F83F1084F8E9
:1024F000401084F8411084F8421084F8431084F8A6
:10250000441084F8451084F83D1010BD80B582B0A9
:10251000006840F20041C4F20001884212D0B0F1DC
:10252000804F0CD141F21C00C4F20200016841F05E
:1025300001010160006800F001000190019802B003
:1025400080BD00BF41F21C00C4F2020001680022FD
:1025500041F0020101600068002100F002000090DB
:1025600000981D20FFF754FA1D2002B0BDE88040FE
:10257000FFF73ABA90F83D1001291CBF01207047BF
:10258000022180F83D10006840F2FF71C4F20001A2
:10259000884209DCB0F1804F12D040F20041C4F211
:1025A000000188420CD012E042F60041C4F2010161
:1025B000884205D040F60001C4F20001884206D1ED
:1025C000816801F00701062904BF002070470168F7
:1025D00041F00101016000207047000090F83D10BB
:1025E00001291CBF01207047022180F83D100068BE
:1025F00040F2FF72C168C4F20002904241F0010152
:10260000C16009DCB0F1804F12D040F20041C4F249
:10261000000188420CD012E042F60041C4F20101F0
:10262000884205D040F60001C4F20001884206D17C
:10263000816801F00701062904BF00207047016886
:1026400041F00101016000207047000080B590F862
:102650003C20012A4FF0020200F0C28080F83D20A9
:10266000D0F800C04FF67772DCF8083023EA020297
:10267000CCF808200B684F2B28DC1F2B44DD202BC7
:1026800045D0302B43D0402B40F0AC80D1F804E053
:10269000C968DCF82030DCF8202022F00102CCF8F8
:1026A0002020DCF8182022F0F00242EA011123F089
:1026B0000A0242EA0E02CCF81810CCF82020DCF80E
:1026C000081041F0470121F0300180E06F2B27DD39
:1026D000B3F5005F48D0B3F5805F7AD0702B40F03F
:1026E0008180D1E901E3C968DCF8082043EA0E03E0
:1026F00022F47F4243EA01211143CCF80810DCF8B0
:10270000081041F0770162E00BB1102B6AD1DCF8C0
:10271000081021F07001194341F0070157E000BF94
:10272000502B35D0602B5DD1D1F804E0C968DCF8BE
:102730002030DCF8202022F01002CCF82020DCF839
:10274000182022F4704242EA013123F0A00242EA4A
:102750000E12CCF81810CCF82020DCF8081041F04C
:10276000670121F0100132E0D1E901E3C968DCF82A
:10277000082043EA0E0322F47F4243EA0121114379
:10278000CCF80810DCF8081041F480411FE000BFCD
:10279000D1F804E0C968DCF82030DCF8202022F011
:1027A0000102CCF82020DCF8182022F0F00242EAE6
:1027B000011123F00A0242EA0E02CCF81810CCF8FC
:1027C0002020DCF8081041F0570121F02001CCF85E
:1027D00008100022012180F83D10002180F83C10F3
:1027E000104680BD0122F5E77047000010B5016872
:1027F00004460869800744BFC8685FEA807039D41E
:102800000869400744BFC8685FEA40703ED4086961
:10281000000744BFC8685FEA007045D40869C00675
:1028200044BFC8685FEAC0604AD40869C0071CBFDB
:10283000C8685FEAC07051D10869000644BFC86823
:102840005FEA006052D40869400644BFC8685FEA86
:10285000406053D40869800646BFC8685FEA80605C
:1028600010BD6FF0200220460A61BDE81040FFF75E
:1028700097BD00BF6FF002000861012020778869D2
:10288000800743D02046FFF7AFFF45E06FF004001C
:10289000086102202077886910F4407F40D02046EC
:1028A000FFF7A2FF42E000BF6FF0080008610420BC
:1028B0002077C86980073DD02046FFF795FF3FE0AD
:1028C0006FF01000086108202077C86910F4407F7D
:1028D0003AD02046FFF788FF3CE000BF6FF00100D0
:1028E0000861204600F0ACFA2168A5E76FF080008F
:1028F00008612046FFF752FD2168A4E76FF0400011
:102900000861204600F0AAFA2168A3E7204600F0FB
:102910004BF8204600F0C8F92168002020776FE7C7
:10292000204600F041F8204600F0BEF92168002062
:1029300020776CE7204600F037F8204600F0B4F925
:1029400021680020207769E7204600F02DF8204616
:1029500000F0AAF921680020207766E780B586B0EC
:1029600000680021B0F1804F049101D006B080BD15
:1029700041F21800C4F20200016841F00401016054
:10298000006802A900F00400019001980120029063
:1029900002200390059040F60000C4F20100FEF70B
:1029A0005BFB06B080BD0000704700002DE9F043DE
:1029B00090F83C30012B04BF0220BDE8F0834FEAC1
:1029C000B202032A3CD8DFE802F0034381BD00BF16
:1029D000036842F600461D6A1A6AC4F2010622F034
:1029E00001021A621A465C6852F818CFB3428E6828
:1029F000D1F800E025F0020545EA06050CD1CE68C5
:102A0000D1E9057824F4407425F00C0526F004067D
:102A10003C43354344EA08042CF0730747EA0E07A9
:102A20005C609F614F6809695F631D629F6947F041
:102A300008079F619F6927F004079F61B2E000BF0C
:102A40000121002280F83C200846BDE8F08300BF49
:102A5000036842F600461D6A1A6AC4F2010622F0B3
:102A600010021A621A46D3F804C052F8184FB34243
:102A70008E68D1F800E025F0200545EA061510D152
:102A8000CE68D1E9058725F0C0096FF0400505EA59
:102A900006152CF4406647EA080745EA090546EAA8
:102AA000870C24F4E64444EA0E27C3F804C09F616F
:102AB0004F6809699F631D629F6947F400679F61C2
:102AC0009F6927F480679F616BE000BF036842F64F
:102AD00000461D6A1A6AC4F2010622F480721A6264
:102AE0001A46D3F804C052F81CEFB3428E680C6843
:102AF00025F4007545EA062511D1CE68D1E9058790
:102B000025F44069360240F2FF4526EA05052CF41B
:102B1000405647EA080745EA090546EA071C2EF031
:102B200073072743C3F804C0DF614F680969DF6397
:102B30001D62DF6947F00807DF61DF6927F00407DE
:102B4000DF612FE0036842F60047D3F820C01A6A1D
:102B5000C4F2010722F480521A621A465C6852F8E5
:102B60001C5FD1F800E08E68BB4204D14F6924F4A9
:102B7000804444EA87142CF4005747EA063725F4CA
:102B8000E64646EA0E265C60DE614E6809691E6410
:102B90001F62DF6947F40067DF61DF6927F4806740
:102BA000DF6109021368194311600021002280F8D7
:102BB0003C200846BDE8F083002804BF0120704790
:102BC00010B5044690F83D0028B9002084F83C0078
:102BD000204600F067F8022084F83D00206840F2AB
:102BE000FF730268C4F2000342F6004C9842C4F23C
:102BF000010C15DCB0F1804F1AD040F20041C4F254
:102C00000001884214D0984218DCB0F1804F1DD0EA
:102C100040F20041C4F20001884217D01AE000BF20
:102C2000604505D040F60001C4F200018842EAD1B7
:102C3000A16822F070020A439842E6DD604505D0A3
:102C400040F60001C4F20001884203D1216922F458
:102C500040720A43A36922F08001D4F804E0E268DC
:102C6000194360450160C262C0F828E002D1616981
:102C7000CCF8301001214161002084F8461084F81E
:102C80003E1084F83F1084F8401084F8411084F816
:102C9000421084F8431084F8441084F8451084F8F6
:102CA0003D1010BD704700007047000041B1082979
:102CB00010D0042914BF00F1410200F13F020BE0E3
:102CC00090F83E20012A1CBF01207047022280F8A4
:102CD0003E2013E000F140021278012A1CBF0120BF
:102CE00070470222082907D0042914BF80F8412028
:102CF00080F83F2002E000BF80F84020006801F02B
:102D00001F010122036A8A4023EA02010162036A69
:102D100042F64441C4F201011A43A1F1440398422E
:102D200002620FD040F2FF71C4F20001884213DC4E
:102D3000B0F1804F1CD040F20041C4F20001884243
:102D400016D01CE00A6842F400420A6040F2FF71AB
:102D5000C4F200018842EBDD42F60041C4F20101F9
:102D6000884205D040F60001C4F20001884206D135
:102D7000816801F00701062904BF0020704701683F
:102D800041F00101016000207047000080B5026839
:102D900001F01F0C012303FA0CFE136A42F6444CA7
:102DA00023EA0E03C4F2010C1362D2F820E0ACF166
:102DB00044039A42C2F820E013D15CF824EC41F2BB
:102DC00011131EEA030F0CD1D2F820E040F2444365
:102DD0001EEA030F05D1DCF8003023F40043CCF8E1
:102DE0000030D2F820C041F211131CEA030F06D1C3
:102DF000D2F820C040F244431CEA030F14D0082943
:102E000018D004290AD000294FF0010114BF80F81E
:102E1000411080F83E10002080BD00BF012180F8E5
:102E20003F10002080BD00BF136823F00103136032
:102E30000829E6D1012180F84010002080BD000063
:102E4000016840F29800C2F20000C26A914218BFC5
:102E50007047C1880131C180704700007047000091
:102E60007047000070470000B0B582B004460068AB
:102E70000168C368426901F02F05202D03F0200589
:102E800006D12DB1204602B0BDE8B04001F048BCEB
:102E90005FEA017C1EBF02F0010E03F4907212EB98
:102EA0000E0253D1226B012A05D111F0100218BF76
:102EB00013F0100236D10A0622D513F080021FD07B
:102EC00094F8411021293FD1A168B1F5805F03D169
:102ED0002169002900F07082216A4A1C2262097867
:102EE0004160E18C01390A04E1842DD1C16821F0EF
:102EF0008001C160C16841F04001C16002B0B0BD55
:102F0000490621D513F040011ED0C16821F04001CF
:102F1000C1602021204684F8411002B0BDE8B040D5
:102F200000F0A4BC00210191016801914168019168
:102F300001994069400613D4A08DE18DE28D002AED
:102F400018BF884240F0BA8102B0B0BDCA0718BFAE
:102F500013F4807240F0B6804A0700F1B980BEE0F9
:102F6000E06B016849688AB2002AEDD0A38D9A42CD
:102F7000EAD2E1858069202800F09C80206850E832
:102F8000030F216820F4807041E80302DAB1206861
:102F900050E8030F216820F4807041E8030292B1E9
:102FA000206850E8030F216820F4807041E8030294
:102FB0004AB1206850E8030F216820F4807041E88E
:102FC0000302002ADAD1206850E8050F216820F0BA
:102FD000010041E80502DAB1206850E8050F2168D8
:102FE00020F0010041E8050292B1206850E8050F89
:102FF000216820F0010041E805024AB1206850E84C
:10300000050F216820F0010041E80502002ADAD10D
:10301000206850E8050F216820F0400041E80502D3
:10302000DAB1206850E8050F216820F0400041E83F
:10303000050292B1206850E8050F216820F0400099
:1030400041E805024AB1206850E8050F216820F0E8
:10305000400041E80502002ADAD1202084F842002D
:1030600000202063206850E8030F216820F0100042
:1030700041E80302DAB1206850E8030F216820F02C
:10308000100041E8030292B1206850E8030F216864
:1030900020F0100041E803024AB1206850E8030F15
:1030A000216820F0100041E80302002ADAD1E06B29
:1030B000FDF740FF02206063A08DE18D401A81B2D0
:1030C000204674E1626C42F0010262644A0706D550
:1030D000BEF1000F03D0626C42F0020262648A0704
:1030E00006D5BEF1000F03D0626C42F004026264A8
:1030F000BCF1000F09D545EA0E02B2FA82F252097C
:1031000003D1626C42F008026264626C002A3FF4F0
:103110001BAF11F0200118BF002D03D0204601F095
:10312000FFFA20684069616C00F0400001F008017E
:10313000401800F0B58000BF206850E8030F2168F8
:1031400020F4907041E80302BAB3206850E8030FFE
:10315000216820F4907041E8030272B3206850E8BF
:10316000030F216820F4907041E803022AB320681D
:1031700050E8030F216820F4907041E80302002A10
:10318000DAD11AE0206850E8050F216820F001002C
:1031900041E80502DAB1206850E8050F216820F007
:1031A000010041E8050292B1206850E8050F21684E
:1031B00020F0010041E805024AB1206850E8050FFF
:1031C000216820F0010041E80502002ADAD1206BD5
:1031D000012824D1206850E8030F216820F0100056
:1031E00041E80302DAB1206850E8030F216820F0BB
:1031F000100041E8030292B1206850E8030F2168F3
:1032000020F0100041E803024AB1206850E8030FA3
:10321000216820F0100041E80302002ADAD12020C2
:1032200084F84200002020632068406940063FD5B2
:10323000206850E8050F216820F0400041E80502B1
:10324000DAB1206850E8050F216820F0400041E81D
:10325000050292B1206850E8050F216820F0400077
:1032600041E805024AB1206850E8050F216820F0C6
:10327000400041E80502002ADAD1E06BC0B144F217
:103280001571C0F600014163FDF778FE00283FF498
:103290005BAEE06B416B02B0BDE8B040084700BFD9
:1032A0002046FFF7DFFD0020606402B0B0BD00BF24
:1032B000204602B0BDE8B040FFF7D4BD401A2168F7
:1032C00051E8031F226821F4907142E80313DBB137
:1032D000216851E8031F226821F4907142E803132A
:1032E00093B1216851E8031F226821F4907142E8EC
:1032F00003134BB1216851E8031F226821F4907138
:1033000042E80313002BDAD1216851E8051F226837
:1033100021F0010142E80513DBB1216851E8051FE6
:10332000226821F0010142E8051393B1216851E8B8
:10333000051F226821F0010142E805134BB1216805
:1033400051E8051F226821F0010142E80513002B16
:10335000DAD1202184F8421000212163216851E84C
:10336000031F226821F0100142E80313DBB121683A
:1033700051E8031F226821F0100142E8031393B1C2
:10338000216851E8031F226821F0100142E803136D
:103390004BB1216851E8031F226821F0100142E877
:1033A0000313002BDAD1022281B22046626302B0FD
:1033B000BDE8B040FFF754BD216A31F8022B6FF32E
:1033C0005F22426021628CE5002804BF0120704723
:1033D00010B5044690F8410028B9002084F8400058
:1033E000204600F063F8242084F841002068D4E9E6
:1033F0000212C36823F40053C360036923F44053EB
:103400001A430261D4E904231143C268194341F20B
:103410000C639A431143C1604169A26921F4407170
:10342000114343F60002C4F201029042416103D00D
:10343000FEF70AFC02E000BFFEF71AFC62681921E1
:1034400048439100B0FBF1F048F21F51C5F2EB1177
:10345000A0FB01235A094FF69C73C0F6FF7302FBD1
:103460000300322303EB0010A0FB0101F02303EA69
:103470005113206803EB0212C1F343111144816020
:10348000016921F490410161416921F02A01416102
:10349000C16841F40051C16000202021606484F8BB
:1034A000411084F84210606310BD00002DE9F04126
:1034B00086B0006844F60001C4F2000188424FF073
:1034C0000001CDE90411CDE9021127D044F20041F9
:1034D000C4F2000188425ED141F21800C4F2020039
:1034E000416840F6000541F40031416041682624FE
:1034F00001F400310191019901684FF0000841F099
:10350000040101600068082700F0040001900198A0
:1035100004200290C4F2010524E000BF41F218002B
:10352000C4F202004168272441F4802141604168CF
:103530004FF0010801F480210191019901684FF4D5
:10354000006741F008010160006800F00800019088
:1035500001984FF48060029040F60000C4F2010030
:1035600000F5806502200390032002AE05902846F6
:103570003146FDF771FD0020CDE9030828463146AC
:103580000297FDF769FD204600210022FEF740FA70
:103590002046FEF729FA06B0BDE8F08190F84230E7
:1035A000202B1CBF0220704700294FF0010318BFD9
:1035B000002A01D11846704700230363816222214B
:1035C0008285C285436480F842100169006819B1A0
:1035D000C16841F48071C1604169002341F001017B
:1035E0004161C16841F02001C16018467047000088
:1035F000704700002DE9F04381B0044690F8410087
:10360000202840F0B180884600294FF0010000F0EA
:10361000D6801646002A00F0D28000206064212067
:103620001D4684F84100FDF731FEA684E684A168BA
:103630000646B1F5805F03D12069002800F098802C
:1036400047464FF00008E18C2068002900F0968082
:1036500005F101090BE000BF47B317F8011B4160FA
:10366000E18C0139E184E18C002900F08780016858
:103670000906F1D4B9F1000F0AD0EDB1FDF706FE4D
:10368000801BA84218D8206801680906F6D5E3E730
:1036900001680906E0D4016809065CBF01685FEAB9
:1036A0000161D9D401680906F2D5D5E738F8021BC3
:1036B00000276FF35F21D2E7206850E8030F2168ED
:1036C00020F4D07041E80302BAB3206850E8030F39
:1036D000216820F4D07041E8030272B3206850E8FA
:1036E000030F216820F4D07041E803022AB3206858
:1036F00050E8030F216820F4D07041E80302002A4B
:10370000DAD11AE0206850E8050F216820F00100A6
:1037100041E80502DAB1206850E8050F216820F081
:10372000010041E8050292B1206850E8050F2168C8
:1037300020F0010041E805024AB1206850E8050F79
:10374000216820F0010041E80502002ADAD120209A
:1037500084F8410084F84200002084F840000320EF
:1037600001B0BDE8F08300BF022001B0BDE8F083E6
:103770000027E18C206800297FF46AAF01684906C0
:1037800019D4FDB1691C0DD10168490613D4016833
:1037900049065CBF01685FEA41610CD401684906D3
:1037A000F2D508E0FDF772FD801BA8420AD8206818
:1037B00000684006F6D5202084F84100002001B0C2
:1037C000BDE8F083206850E8030F216820F4D07032
:1037D00041E80302002A3ED0206850E8030F216828
:1037E00020F4D07041E80302AAB3206850E8030F28
:1037F000216820F4D07041E8030262B3206850E8E9
:10380000030F216820F4D07041E80302002AD9D1C7
:1038100021E000BF206850E8050F216820F001007A
:1038200041E80502002A3FF492AF206850E8050FF6
:10383000216820F0010041E80502002A3FF487AF2B
:10384000206850E8050F216820F0010041E80502DA
:10385000002A3FF47CAF206850E8050F216820F073
:10386000010041E80502002AD4D170E7704700004A
:10387000FEE700002DE9F04782B0044600680E46DE
:103880000168DDF828A041F4806101600168DDF87D
:103890002C9041F480711D461746016020464FF080
:1038A000011100225346CDF8009000F033F958B1D1
:1038B00020680068C00544BF4FF4007020640320F6
:1038C00002B0BDE8F08700BF40F202082068C0F2F5
:1038D000010806F0FE0606612046414652464B4668
:1038E00000F002FA20B1012002B0BDE8F08700BF6D
:1038F0000020019020684A46416901918069514643
:1039000001900198204600F0A7FA98B92068012D8F
:1039100008D0390A0161204651464A4600F09CFA17
:1039200040B92068F9B20161204651464A4600F08C
:1039300093FA58B1206C0428D5D12068016841F46D
:1039400000710160012002B0BDE8F087206800220C
:103950000168534641F48071016020464FF0011127
:10396000CDF8009000F0D6F80028A1D1206846F0EC
:10397000010101612046414652464B4600F0B4F930
:10398000002818BF012002B0BDE8F0872DE9F04300
:1039900083B0044600680D4601680A9F0B9E41F4FF
:1039A000807199469046016020464FF00111002237
:1039B0003B46009600F0AEF850B120680068C005A4
:1039C00044BF4FF400702064032003B0BDE8F083CF
:1039D000206805F0FE0101610221C0F201012046CC
:1039E0003A46334600F080F920B1012003B0BDE82B
:1039F000F08300BF002002902068324641690291A6
:103A00008069394602900298204600F025FA58B1A4
:103A1000206C0428E9D12068016841F4007101603C
:103A2000012003B0BDE8F0832068B9F1010F0AD08E
:103A30004FEA1821016120463946324600F00CFA5F
:103A40000028E5D120685FFA88F10161002003B009
:103A5000BDE8F08370B50368044653F8140F4007BF
:103A600011D40E46481C29D086BB00BF18684005FB
:103A700027D4FDF70BFC236853F8140F400739D502
:103A800018684007F2D5002070BD00BF18684007D5
:103A9000F9D41868400514D418684007F3D418689E
:103AA00040050ED418684007EDD41868400508D4C6
:103AB000186840074FF0000048BF70BD1868400507
:103AC000E4D56FF480601860042014E0154603E02C
:103AD00053F8140F4007D6D418684005F1D4FDF709
:103AE000D5FB401B2368B042F2D958694007EFD498
:103AF000202000E0202000212022216384F83D20A6
:103B000084F83E10226C10432064012084F83C109D
:103B100070BD00002DE9F041054600681E461446C0
:103B200001F47F0201338FB242D0DDF81880B2F584
:103B3000803F40F0878040693840C01BB0FA80F079
:103B40004009A04240F0C8804EB924E040693840A6
:103B5000C01BB0FA80F04009A04240F0BD80FDF7E4
:103B600095FBA0EB08012868B142EFD941693940C3
:103B7000C91BB1FA81F14909A142E7D19BE000BF1D
:103B800040693840C01BB0FA80F04009A0424FF0B5
:103B9000000040F0A680FDF779FB286841693940B4
:103BA000C91BB1FA81F14909A142E9D183E000BF03
:103BB000B2F5803F24D100BF41693940C91BB1FA39
:103BC00081F14909A14240F0878041693940C91B10
:103BD000B1FA81F14909A14240F07E804169394042
:103BE000C91BB1FA81F14909A14275D14169394036
:103BF000C91BB1FA81F14909A142DDD06CE000BFD7
:103C000081693940C91BB1FA81F14909A14263D1E7
:103C100081693940C91BB1FA81F14909A1425BD1DF
:103C200081693940C91BB1FA81F14909A14253D1D7
:103C300081693940C91BB1FA81F14909A142DFD03C
:103C40004AE000BF80693840C01BB0FA80F04009EC
:103C5000A04241D146B923E080693840C01BB0FA88
:103C600080F04009A0423BD1FDF710FBA0EB08011A
:103C70002868B142F0D981693940C91BB1FA81F194
:103C80004909A142E8D116E080693840C01BB0FA6A
:103C900080F04009A0424FF0000018BFBDE8F0815D
:103CA000FDF7F4FA286881693940C91BB1FA81F13E
:103CB0004909A142E8D100202021286385F83D1060
:103CC00085F83E00296C41F02001296485F83C000C
:103CD0000120BDE8F08100BF0020BDE8F08100BFF9
:103CE0000020BDE8F0810000F0B581B00446006816
:103CF0001D4643698FB203EA0701B94202D1002091
:103D000001B0F0BD41691646013201F4806125D051
:103D1000002940D1CEB100BFFDF7B8FA411B2068A1
:103D2000B14203D941693940B9424BD14169394067
:103D3000B942E4D041694905EED52CE041693940EA
:103D4000B942DCD04169490525D4FDF79FFA2068C6
:103D500041693940B942F1D0202024E0D9B9416904
:103D60003940B942CBD04169490514D44169394041
:103D7000B942C4D0416949050DD441693940B942BD
:103D8000BDD04169490506D441693940B942B6D030
:103D900041694905E3D5016841F4007101606FF4A0
:103DA00080614161042000212022216384F83D20AC
:103DB00084F83E10226C1043206484F83C100120EB
:103DC00001B0F0BD2020EEE770B50446006815464E
:103DD00050F8143F5A063DD40E4629B926E000BFDC
:103DE00050F8141F490635D40168C90621D4FDF7DF
:103DF0004DFA411B2068B142F2D941694906EFD41E
:103E000000202021206384F83D1084F83E00206CBF
:103E100040F0200018E000BFFDF738FA206850F8A5
:103E2000141F4906ECD50168490613D40168C90678
:103E3000F2D56FF01001016000202021206384F88A
:103E40003D1084F83E00206C2064002084F83C0083
:103E5000012070BD002070BD70B50368044653F8A2
:103E6000140F000611D40E46481C29D086BB00BF93
:103E70001868400527D4FDF709FA236853F8140F92
:103E8000000639D518680006F2D5002070BD00BFC5
:103E900018680006F9D41868400514D4186800069C
:103EA000F3D4186840050ED418680006EDD41868DD
:103EB000400508D4186800064FF0000048BF70BDE8
:103EC00018684005E4D56FF480601860042014E0A1
:103ED000154603E053F8140F0006D6D418684005C1
:103EE000F1D4FDF7D3F9401B2368B042F2D95869E9
:103EF0000006EFD4202000E02020002120222163B2
:103F000084F83D2084F83E10226C10432064012088
:103F100084F83C1070BD0000F0B583B00C2040F672
:103F200000448DF803000120C4F201048DF8020062
:103F300020464FF4805100220026FDF7A1F940F2FF
:103F40006015C2F200050DF1030128460122642329
:103F5000FEF710F90DF10201284601226423FEF755
:103F600009F920464FF480510122FDF789F909270C
:103F700020464FF4805100228DF805708DF80460C2
:103F8000FDF77EF90DF10501284601226423FEF7B5
:103F9000F1F801A9284601226423FEF7EBF8204638
:103FA0004FF480510122FDF76BF90A208DF80700CC
:103FB00020464FF4805100228DF80670FDF760F91D
:103FC0000DF10701284601226423FEF7D3F80DF115
:103FD0000601284601226423FEF7CCF820464FF460
:103FE00080510122FDF74CF90B208DF809000720C4
:103FF0008DF8080020464FF480510022FDF740F96B
:104000000DF10901284601226423FEF7B3F802A945
:10401000284601226423FEF7ADF820464FF4805174
:104020000122FDF72DF90F208DF80B0020464FF4EB
:10403000805100228DF80A60FDF722F90DF10B0185
:10404000284601226423FEF795F80DF10A0128465F
:1040500001226423FEF78EF820464FF4805101229E
:10406000FDF70EF903B0F0BD2DE9F04F83B040F23B
:104070009807C2F20007092027F8280F0720C1F28D
:104080000800394640F20C1441F8040D0126C2F232
:1040900000044FF47A7BCDE900162046D021192286
:1040A0000123FD1EA7F1020AA7F1010907F101088A
:1040B000CDF808B0FDF752FB2046D0211A2201238B
:1040C000CDE90056CDF808B0FDF748FB2046D021D9
:1040D0001B220123CDE900A6CDF808B0FDF73EFB79
:1040E0002046D0211C220123CDE90096CDF808B04E
:1040F000FDF734FB2046D02138220123CDE900769C
:10410000CDF808B0FDF72AFB2046D0216B22012311
:10411000CDE90086CDF808B0FDF720FB03B0BDE87F
:10412000F08F0000FEE70000FEE70000704700008F
:104130002DE9F04182B01E4690460D460446FDF73B
:10414000A5F8301A00EB0807FDF7A0F840F230019F
:10415000C2F200010968C1F3CB31794301912168B2
:104160008A682A40AA4227D1064618F101001FD0CA
:10417000FDF78CF8801BB84222D2019801990028E3
:10418000A1F1010101912168896808BF074601EA90
:104190000500A842ECD00FE088682840A8420BD167
:1041A00088682840A84207D188682840A84203D1DF
:1041B00088682840A842EFD0002002B0BDE8F08116
:1041C000D4E900014268B1F5827F22F0E00242604A
:1041D0000AD1A168B1F5004F02D0B1F5806F03D1CB
:1041E000016821F040010160A16AB1F5005F07D1CB
:1041F000016821F400510160016841F4005101603F
:10420000012084F85100002084F85000032002B0FF
:10421000BDE8F08170470000B0B540F2B814C2F2BA
:10422000000420687D21416364206425FCF700FFC1
:1042300020687C2141636420FCF7FAFE20687B2122
:1042400041636420FCF7F4FE20687A214163642016
:10425000FCF7EEFE2068792141636420FCF7E8FE5C
:104260002068782141636420FCF7E2FE2068772112
:1042700041636420FCF7DCFE206876214163642002
:10428000FCF7D6FE2068752141636420FCF7D0FE60
:104290002068742141636420FCF7CAFE2068732102
:1042A00041636420FCF7C4FE2068722141636420EE
:1042B000FCF7BEFE2068712141636420FCF7B8FE64
:1042C0002068702141636420FCF7B2FE20686F21F2
:1042D00041636420FCF7ACFE20686E2141636420DA
:1042E000FCF7A6FE20686D2141636420FCF7A0FE68
:1042F00020686C2141636420FCF79AFE20686B21E2
:1043000041636420FCF794FE20686A2141636420C5
:10431000FCF78EFE2068692141636420FCF788FE6B
:104320002068682141636420FCF782FE20686721D1
:1043300041636420FCF77CFE2068662141636420B1
:10434000FCF776FE2068652141636420FCF770FE6F
:10435000206845636420FCF76BFE2068632141639D
:104360006420FCF765FE2068622141636420FCF74D
:104370005FFE2068612141636420FCF759FE2068DC
:10438000602141636420FCF753FE20685F21416394
:104390006420FCF74DFE20685E2141636420FCF739
:1043A00047FE20685D2141636420FCF741FE2068E0
:1043B0005C2141636420FCF73BFE20685B21416384
:1043C0006420FCF735FE20685A2141636420FCF725
:1043D0002FFE2068592141636420FCF729FE2068E4
:1043E000582141636420FCF723FE20685721416374
:1043F0006420FCF71DFE2068562141636420FCF711
:1044000017FE2068552141636420FCF711FE2068E7
:10441000542141636420FCF70BFE20685321416363
:104420006420FCF705FE2068522141636420FCF7FC
:10443000FFFD2068512141636420FCF7F9FD2068ED
:10444000502141636420FCF7F3FD20684F21416354
:104450006420FCF7EDFD20684E2141636420FCF7E9
:10446000E7FD20684D2141636420FCF7E1FD2068F1
:104470004C2141636420FCF7DBFD21684B22642062
:104480004A63BDE8B040FCF7D3BD0000B0B540F2D0
:10449000B814C2F2000420684B21416364206425F3
:1044A000FCF7C6FD20684C2141636420FCF7C0FD89
:1044B00020684D2141636420FCF7BAFD20684E213D
:1044C00041636420FCF7B4FD20684F214163642000
:1044D000FCF7AEFD2068502141636420FCF7A8FD85
:1044E0002068512141636420FCF7A2FD206852211D
:1044F00041636420FCF79CFD2068532141636420E4
:10450000FCF796FD2068542141636420FCF790FD80
:104510002068552141636420FCF78AFD20685621FC
:1045200041636420FCF784FD2068572141636420C7
:10453000FCF77EFD2068582141636420FCF778FD7C
:104540002068592141636420FCF772FD20685A21DC
:1045500041636420FCF76CFD20685B2141636420AB
:10456000FCF766FD20685C2141636420FCF760FD78
:1045700020685D2141636420FCF75AFD20685E21BC
:1045800041636420FCF754FD20685F21416364208F
:10459000FCF74EFD2068602141636420FCF748FD74
:1045A0002068612141636420FCF742FD206862219C
:1045B00041636420FCF73CFD206863214163642073
:1045C000FCF736FD206845636420FCF731FD206868
:1045D000652141636420FCF72BFD2068662141635F
:1045E0006420FCF725FD2068672141636420FCF707
:1045F0001FFD2068682141636420FCF719FD2068D5
:10460000692141636420FCF713FD20686A2141633E
:104610006420FCF70DFD20686B2141636420FCF7EA
:1046200007FD20686C2141636420FCF701FD2068D0
:104630006D2141636420FCF7FBFC20686E2141631F
:104640006420FCF7F5FC20686F2141636420FCF7CF
:10465000EFFC2068702141636420FCF7E9FC2068CE
:10466000712141636420FCF7E3FC206872214163FF
:104670006420FCF7DDFC2068732141636420FCF7B3
:10468000D7FC2068742141636420FCF7D1FC2068CA
:10469000752141636420FCF7CBFC206876214163DF
:1046A0006420FCF7C5FC2068772141636420FCF797
:1046B000BFFC2068782141636420FCF7B9FC2068C6
:1046C000792141636420FCF7B3FC20687A214163BF
:1046D0006420FCF7ADFC20687B2141636420FCF77B
:1046E000A7FC20687C2141636420FCF7A1FC2168C1
:1046F0007D2264204A63BDE8B040FCF799BC00000D
:10470000FDF70AB97047000040F2C400C2F2000091
:10471000FEF76CB8406A0021C185C184FEF7A2BBD8
:1047200081B090F84210222921D183680246B3F566
:10473000805F09D152F8281F52F8183C002B63D033
:1047400003685B680AE000BF52F8281F13B90369C9
:10475000002BF5D003685B6803F07F030B701168D2
:1047600001311160C18D01390A04C18502D001B047
:10477000704700BF0168CA6822F02002CA60CA6898
:1047800022F48072CA604A6922F001024A61202143
:1047900080F8421000214163026B012A3CD1016381
:1047A000016851E8031F026821F0100142E8031379
:1047B000DBB1016851E8031F026821F0100142E8F3
:1047C000031393B1016851E8031F026821F010013F
:1047D00042E803134BB1016851E8031F026821F05E
:1047E000100142E80313002BDAD101680A68D206EF
:1047F00006D5002200920A6800924968009100994B
:10480000818D01B0FEF72CBB026852686FF35F2206
:1048100021F8022B8162A5E701B0FEF7E9BE000096
:1048200040F20020C2F20000FEF71EBB40F248201A
:10483000C2F20000FEF718BBFEE7000096B0FDF7DD
:1048400079F80AAC201D2421FBF7BEFC02200A9057
:1048500001200E9010200F90002520461195FDF7A5
:104860001BFA28B1EFF3108072B600BFFEE700BF5D
:104870000F20CDE9040504A80021CDE906550895CF
:10488000FDF702F920B1EFF3108072B6FEE700BF2A
:10489000002641F218000D96C4F20200016840F6AD
:1048A000004441F0100101600168C4F2010401F00C
:1048B0001001049104990168002241F02001016077
:1048C000016841F2010701F0200104910499016897
:1048D00041F004010160016801F0040104910499B0
:1048E000016841F008010160006841F2010100F037
:1048F0000800049004982046FCF7C2FC4FF40040E6
:104900000AADCDE90A0604F5806029460C96FCF74D
:10491000A3FB01200A97CDE90B0602272046294672
:104920000D97FCF799FB4FF406700AA9C1C1204608
:104930002946FCF791FB40F20C10A4F53841C2F275
:10494000000048F2A0624FF48043C0F2010280E808
:104950004600C0E90363C0E90566C0E90766FCF7E5
:104960009BFC28B1EFF3108072B600BFFEE700BFDA
:1049700040F2B810C2F200004FF0804140F2E7333D
:104980000796CDE90566CDE91466CDE90F66CDE958
:104990000D669F2280E84600C0E903368661FDF778
:1049A0003FFD28B1EFF3108072B600BFFEE700BFF5
:1049B0004FF48050049040F2B810C2F2000004A9F5
:1049C000FDF744FE20B1EFF3108072B6FEE700BFA2
:1049D00040F2B810C2F20000FEF7EEF820B1EFF39B
:1049E000108072B6FEE700BF40F2B810C2F20000BD
:1049F00014A9FDF7D7FC28B1EFF3108072B600BF01
:104A0000FEE700BF60200A904FF4FA700B9040F26E
:104A1000B8100025C2F200000AA900220C950E95DC
:104A2000FDF7C4FF20B1EFF3108072B6FEE700BFC0
:104A300040F2B810C2F20000FDF790FF40F2980675
:104A4000C2F20006A4F58431304640F82C1F40F233
:104A50003F1140F2E7320D95CDE90B55CDE90455F4
:104A6000C0E90115C0E903258561FDF7D9FC28B12E
:104A7000EFF3108072B600BFFEE700BF4FF4805026
:104A800006F12C050A900AA92846FDF7DFFD28B19A
:104A9000EFF3108072B600BFFEE700BF04A92846FE
:104AA000FDF780FC20B1EFF3108072B6FEE700BF87
:104AB00040F26010A4F55441C2F200004FF482723B
:104AC00000274FF4007380E886000A21C0E90377CD
:104AD000C0E90573C761C0E90877C0E90A71FDF74D
:104AE000B5FA18B1EFF3108072B6FEE740F200207D
:104AF000A4F54841C2F200004FF416594FF00C08DB
:104B0000C0E90019C0E90277C0E90478C0E9067776
:104B1000FEF75AFC20B1EFF3108072B6FEE700BF3B
:104B200040F24820A4F54441C2F200000022C0E94E
:104B30000019C0E90222C0E90428C0E90622FEF7F4
:104B400043FC18B1EFF3108072B6FEE740F2B814E0
:104B5000C2F200042046FDF70DFD20460021FEF7BD
:104B6000A5F82846FDF73AFDFFF756FB4FF47A709B
:104B70000121CDE9011040F20C10C2F20000D02159
:104B8000752201230096FCF743FC3078682808BFA3
:104B9000FFF76AFAFFF7C0F9FCF79CF840F2002033
:104BA000F11CC2F200000122FEF7F8FCFBF7B4FB97
:104BB000FCE70000000000000000010203040607FB
:104BC00008090000000001020304010202030405B9
:104BD000060708090A0B0C0D0E0F1010004C0008F8
:104BE000000000203800000028010008384C0008B0
:104BF00038000020600800004401000800000000A8
:104C00007E4F67764E5B0E0177313233005761720B
:104C10006D696E67203A20446F6F72204F70656E29
:104C2000202121210A0000000100000010000000E6
:084C30000024F4000000000064
:04000005080000ED02
:00000001FF
